:1000000012C083C129C028C027C026C01AC224C07C
:1000100023C022C021C020C01FC01EC01DC01CC0E4
:100020001BC01AC019C011241FBECFEDCDBF10E0F8
:10003000A0E6B0E0E8E7F4E002C005900D92A83A2F
:10004000B107D9F710E0A8EAB0E001C01D92A53BC6
:10005000B107E1F74DD00EC2D3CF539A83B186607A
:1000600083B912B88CE089B908955D9BFECF8CB935
:1000700080E090E00895FC0104C05D9BFECF8CB948
:10008000319680818823C9F70895282F5D9BFECF84
:10009000822F64E6E3D1805D8CB95D9BFECF822F19
:1000A0006AE0DCD1DBD1905D9CB95D9BFECF822FF5
:1000B0006AE0D4D1905D9CB9089581E085BF80E469
:1000C0008BBF089512BE89B7826089BF13BE82E0DC
:1000D00083BF81E08093B200089512BE82E083BFA7
:1000E00081E08093B200089513BE1092B20008958B
:1000F000EF92FF920F931F93CF93DF9311BA8FEF7D
:1001000082BB909A8E9A969AB89AB99ABA9ABB9AE2
:10011000BC9ABD9ABE9ABF9A12BE89B7826089BF47
:1001200013BE82E083BF81E08093B200539A83B113
:10013000866083B912B88CE089B9E199FECF80E07E
:1001400090E0E82E8EBBE09A1DB3E0E6F0E004C03C
:100150005D9BFECF8CB9319680818823C9F7E5E895
:10016000F0E004C05D9BFECF8CB93196808188237E
:10017000C9F7812F8ADFE6E9F0E004C05D9BFECF7E
:100180008CB9319680818823C9F781E085BF80E4EE
:100190008BBF1092B4001092B20096987894C8EC7D
:1001A000D0E00DE287E6F82E809942C0969902C011
:1001B000969A01C096988091B400813011F020E0A9
:1001C0002CC08091B1008F3F11F420E024C0109129
:1001D000B100E9E9F0E004C05D9BFECF8CB9319637
:1001E00080818823C9F78091B1004FDFE6E9F0E014
:1001F00004C05D9BFECF8CB9319680818823C9F7FE
:10020000E199FECF1CBAEEBA1DBB0FB6F894E29A84
:10021000E19A0FBE21E01092B40084EF91E0FE015C
:100220003197F1F70197D9F7222309F4BFCF9698B8
:100230008091B400813009F0B7CF8091B10025DF03
:100240005D9BFECF0CB98091B0001FDF5D9BFECFA0
:100250000CB98091B30019DF5D9BFECF0CB9809182
:10026000B100811709F044C02091B3008091B30020
:10027000869590E030E08227932785759070892BD2
:10028000B9F58091B000882399F55D9BFECFFCB84D
:100290008091B300803C11F4C09AC1988091B30062
:1002A000833C11F4C19AC0988091B3008C3C11F446
:1002B000C29AC3988091B3008F3C11F4C39AC2983C
:1002C0008091B300803F11F4C49AC5988091B30027
:1002D000833F11F4C59AC4988091B3008C3F11F408
:1002E000C69AC7988091B3008F3F11F4C79AC698F9
:1002F0001092B400E6E9F0E004C05D9BFECF8CB93B
:10030000319680818823C9F74FCF1F920F920FB685
:100310000F9211242F933F938F939F93829904C040
:1003200082B78093AE0084C092B712BE8091B200B3
:10033000882339F482E083BF81E08093B200109279
:10034000AF0095569E3008F071C02091AF00222377
:1003500039F41092AD001092AC001092AB0002C0C4
:10036000283070F49091AD0096959093AD008091F7
:10037000AE008754833118F590589093AD001FC09C
:100380002A3070F49091AC0096959093AC008091D7
:10039000AE008754833198F490589093AC000FC00E
:1003A000223168F49091AB0096959093AB008091C8
:1003B000AE008754833118F490589093AB00822F8D
:1003C0008F5F8093AF00823199F53091AA008091C0
:1003D000AD003817F9F42091A9008091AC002817DE
:1003E000C9F49091A8008091AB00981799F43093CC
:1003F000B1002093B0009093B3001092AD00109222
:10040000AC001092AB008091B400882319F481E015
:100410008093B4008091AD008093AA008091AC00DD
:100420008093A9008091AB008093A8001092AF0048
:100430009F918F913F912F910F900FBE0F901F9022
:1004400018951F920F920FB60F92112413BE10929F
:10045000B2000F900FBE0F901F901895991B79E076
:1004600004C0991F961708F0961B881F7A95C9F744
:0804700080950895F894FFCF78
:100478004D6165726B6C696E206469676974616C43
:10048800206465636F6465722C20286329203230EC
:1004980030390D0A00456967656E652061647265CB
:1004A8007373653A20000D0A006E657565206164F6
:0804B80072657373653A2000C0
:00000001FF
