:1000000010C00EC127C026C025C024C023C022C0F6
:1000100021C020C01FC0ADC11DC01CC01BC01AC064
:1000200019C011241FBECFEDCDBF10E0A0E6B0E097
:10003000E0E9F3E002C005900D92A036B107D9F7D0
:1000400010E0A0E6B0E001C01D92AD36B107E1F7C7
:1000500028D09CC1D5CF81E085BF80E48BBF0895B7
:100060001DBC1CBC81EA8FBD83E08EBD1BBC1ABCCD
:1000700019BC18BC089512BE89B7816089BF10BE33
:1000800082E083BF81E080936A00089512BE82E01F
:1000900083BF81E080936A00089513BE10926A00C6
:1000A000089580E68ABB8FEF8BBB8BEF87BB84E024
:1000B00088BB12BE89B7816089BF10BE82E083BF52
:1000C00081E080936A0079B372957F70709571704A
:1000D00069B3262F2F7030E0A90148705070E3E01B
:1000E000440F551FEA95E1F7C90184709070880F9D
:1000F000991F880F991FA42FA82B6170A62B22701F
:100100003070220F331FA22BE199FECF80E090E0E8
:10011000B82F8EBBE09AFDB381E085BF80E48BBF32
:100120001DBC1CBC81EA8FBD83E08EBD1BBC1ABC0C
:1001300019BC18BC10926C0010926A007894E0E030
:1001400080916C008130E1F780916900882309F487
:1001500064C0809169008A1709F05FC020916B002C
:1001600080916B0040916B0060916B0030E02074D7
:10017000307093E0359527959A95E1F790E080717E
:1001800090709595879595958795280F6170260FA6
:1001900050E04470507055954795240F9091680039
:1001A000213011F0E0E013C0EE2379F480E0FF236A
:1001B00009F481E0F82FE199FECF1CBABEBB8DBBDC
:1001C0000FB6F894E29AE19A0FBE20E0E1E080E0F9
:1001D000911181E0872B30E041F0F13019F4C09AA1
:1001E000C19807C0C19AC0980FC0C098C198F1309B
:1001F00059F41BBC1ABC94E0220F331F9A95E1F707
:1002000039BD28BDF1E009C019BC18BC84E0220F3B
:10021000331F8A95E1F73BBD2ABD10926C0090CF49
:100220001F920F920FB60F9211242F933F938F932B
:100230009F93B29945C092B79093660080916700F2
:10024000813109F08DC080916300869580936300B1
:10025000955B933118F4805880936300309162006D
:10026000809165003817F9F4209161008091640055
:100270002817C9F49091600080916300981799F451
:10028000309369002093680090936B001092650092
:10029000109264001092630080916C00882319F41E
:1002A00081E080936C008091650080936200809172
:1002B00064008093610080916300809360004EC071
:1002C00092B712BE80916A00882339F482E083BF1E
:1002D00081E080936A0010926700995C9D31F0F58F
:1002E00020916700222339F4109265001092640077
:1002F0001092630002C0283070F4909165009695CA
:100300009093650080916600855B833118F5905865
:10031000909365001FC02A3070F490916400969508
:100320009093640080916600855B833198F49058C7
:10033000909364000FC0223168F490916300969509
:100340009093630080916600855B833118F4905828
:10035000909363002F5F2093670002C010926700A4
:100360009F918F913F912F910F900FBE0F901F90F3
:1003700018951F920F920FB60F92112413BE109270
:100380006A000F900FBE0F901F901895F894FFCF42
:00000001FF
